:03000000020008F3
:10000300C2AFC21432D2A8D28875813090E0037493
:1000130081F090C0037480F091E7F52391E7F52414
:1000230091E7F51091E7F511852312852413E51265
:10003300B51008E513B5110302005691E785128345
:10004300851382F0E5132401F513E5123400F5124C
:1000530002003185231A85241B85241D740225245F
:10006300F51CC2AFE510B51A08E511B51B0302066E
:1000730025301103020355851A83851B82E0C333A0
:10008300F5189005E193F5F0E5180493F58285F0F2
:10009300837400733013030200657526007527000F
:1000A300851A28851B29B1B9B1A9B1D2B11820E3AA
:1000B3000B20E203020065D21302006520E22E75D5
:1000C300260A75270A75280A75290AB1B9B1A9B193
:1000D300D291E7752600752700752800D2D4D2D3B4
:1000E300F8E6F529B1B9B1A9B1D202009775260B8B
:1000F30075270B75280B75290BB1B9B1A9B1D2912D
:10010300E7D2D4D2D3F875260C75270C75280C7555
:10011300290CB1B9B1A9B1D291E7F988838982E0F9
:10012300752600752700752800F529B1B9B1A9B165
:10013300D2020097020065851A83851B82A3E0D251
:10014300D4D2D3F8E50056F50091DA91DA0200979C
:10015300851A83851B82A3E0D2D4D2D3F8E5005855
:10016300F50091DA91DA020097851A83851B82A341
:10017300E0D2D4D2D3F8E50046F50091DA91DA0261
:100183000097851A83851B82A3E0D2D4D2D3F8E5E6
:100193000048F50091DA91DA020097851A83851BEE
:1001A30082A3E0D2D4D2D3F8E6F4F691DA91DA025C
:1001B3000097851A83851B82A3E0D2D4D2D3F8E6B5
:1001C30023F691DA91DA020097851A83851B82A3BD
:1001D300E0D2D4D2D3F8E6A200339200F691DA91BA
:1001E300DA020097851A83851B82A3E0D2D4D2D387
:1001F300F8E603F691DA91DA020097851A83851BF4
:1002030082A3E0D2D4D2D3F8E6A200139200F691EF
:10021300DA91DA020097851A83851B82A3E0D2D490
:10022300D2D3F8E500C3269200F50091DA91DA0201
:100233000097851A83851B82A3E0D2D4D2D3F8E535
:1002430000C3289200F50091DA91DA020097851A2B
:1002530083851B82A3E0D2D4D2D3F8E500A2003673
:100263009200F50091DA91DA020097851A83851BD3
:1002730082A3E0D2D4D2D3F8E500A200389200F5ED
:100283000091DA91DA020097851A83851B82A3E035
:10029300D2D4D2D3F8E500A200969200F50091DA09
:1002A30091DA020097851A83851B82A3E0D2D4D208
:1002B300D3F8E500A200989200F50091DA91DA02F2
:1002C3000097851A83851B82A3E0D2D4D2D3F8A3E7
:1002D300E0F9E500600991DA91DA91DA020097E832
:1002E3002523F51AE93524F51B020097851A838522
:1002F3001B82A3E0D2D4D2D3F8A3E0F9A200400931
:1003030091DA91DA91DA020097E82523F51AE935B3
:1003130024F51B020097851A83851B82A3E0D2D4A0
:10032300D2D3F8A3E0F9E82523F51AE93524F51B20
:1003330002009791A5851A83851B82A3E0D2D4D2AC
:10034300D3F8A3E0F9E82523F51AE93524F51B02D0
:10035300009791A5D210C21178187903E82523F5E7
:100363001AE93524F51B02009791BF02009791BF4C
:10037300C210301205D2AA020097C2AA020097C285
:1003830012020097D212020097851A83851B82A35B
:10039300E0D2D4D2D3F8A3E0F9A3E0FE89838E821E
:1003A300E0F691DA91DA91DA91DA020097851A830D
:1003B300851B82A3E0D2D4D2D3F9A3E0FEA3E0F855
:1003C30089838E82E6F091DA91DA91DA91DA02008A
:1003D3009775260A75270B75280C75290D1205B913
:1003E30091E7F50091DA020097850C26850D2785A4
:1003F3000E28850F29B1B9B1A991DA020097851AA0
:1004030083851B82A3E0D2D4D2D3F8A3E0F9E7F625
:1004130091DA91DA91DA02009791DA020097851A5C
:1004230083851B82A3E0D2D4D2D3F8A3E0F9E9F603
:1004330091DA91DA91DA020097851A83851B82A3F8
:10044300E0D2D4D2D3F8A3E0F9E52048F520E521A2
:1004530049F52191DA91DA91DA020097851A8385B9
:100463001B82A3E0D2D4D2D3F8A3E0F9E52058F558
:1004730020E52159F52191DA91DA91DA0200978585
:100483001A83851B82A3E0D2D4D2D3F8A3E0F9E583
:100493002068F520E52169F52191DA91DA91DA02F4
:1004A3000097E51A851C83851D82F0A3E51BF0E503
:1004B3001D2402F51DE51C3400F51C22C3E51D9423
:1004C30002F51DE51C9400F51C851C83851D82E047
:1004D300F51AA3E0F51B22E51B2401F51BE51A34ED
:1004E30000F51A2200B118F514B118F5F0E514C39C
:1004F30033C333C333C33325F0F5147526FF752790
:10050300FF7528FF851429B1B9B1A9B1D2B118B4C7
:100513000FD3E5142290E0037481F090E002740F8E
:10052300F0D214D2AF2014FDC2AFB19EE0F4F5F0C7
:1005330090E0037488F090E0027400F0B19EE0F460
:10054300F515E5F0B4F10675F00002056BB4F2069B
:1005530075F00102056BB4F40675F00202056BB485
:10056300F80675F00302056BE515B41F0574000268
:10057300058DB42F05740102058DB44F0574020275
:10058300058DB48F05740302058DF515E5F0C333AE
:10059300C3332515F515B19EE5152274FF00000040
:1005A30000001470F82275F0BFB19EB19EB19E1584
:1005B300F0E5F070F42290C000E526F090E000E54D
:1005C30029F090C002E528F090C001E527F02275DC
:1005D3002600752700752800752900B1B9223A0154
:1005E30053016C0185019E01B501CC01E701FE01B8
:1005F3001902350251026E028B02A802C502EF02F4
:100603001903360355036C037103820387038C03B9
:10061300B003D403EC0301041C0421043C045F0471
:0506230082040206251F
:00000001FF
